{
  "_format": "hh-sol-artifact-1",
  "contractName": "Fairuz",
  "sourceName": "contracts/Fairuz.sol",
  "abi": [
    {
      "inputs": [],
      "stateMutability": "nonpayable",
      "type": "constructor"
    },
    {
      "anonymous": false,
      "inputs": [
        {
          "indexed": true,
          "internalType": "address",
          "name": "owner",
          "type": "address"
        },
        {
          "indexed": true,
          "internalType": "address",
          "name": "approved",
          "type": "address"
        },
        {
          "indexed": true,
          "internalType": "uint256",
          "name": "tokenId",
          "type": "uint256"
        }
      ],
      "name": "Approval",
      "type": "event"
    },
    {
      "anonymous": false,
      "inputs": [
        {
          "indexed": true,
          "internalType": "address",
          "name": "owner",
          "type": "address"
        },
        {
          "indexed": true,
          "internalType": "address",
          "name": "operator",
          "type": "address"
        },
        {
          "indexed": false,
          "internalType": "bool",
          "name": "approved",
          "type": "bool"
        }
      ],
      "name": "ApprovalForAll",
      "type": "event"
    },
    {
      "anonymous": false,
      "inputs": [
        {
          "indexed": true,
          "internalType": "address",
          "name": "previousOwner",
          "type": "address"
        },
        {
          "indexed": true,
          "internalType": "address",
          "name": "newOwner",
          "type": "address"
        }
      ],
      "name": "OwnershipTransferred",
      "type": "event"
    },
    {
      "anonymous": false,
      "inputs": [
        {
          "indexed": false,
          "internalType": "address",
          "name": "account",
          "type": "address"
        }
      ],
      "name": "Paused",
      "type": "event"
    },
    {
      "anonymous": false,
      "inputs": [
        {
          "indexed": true,
          "internalType": "address",
          "name": "from",
          "type": "address"
        },
        {
          "indexed": true,
          "internalType": "address",
          "name": "to",
          "type": "address"
        },
        {
          "indexed": true,
          "internalType": "uint256",
          "name": "tokenId",
          "type": "uint256"
        }
      ],
      "name": "Transfer",
      "type": "event"
    },
    {
      "anonymous": false,
      "inputs": [
        {
          "indexed": false,
          "internalType": "address",
          "name": "account",
          "type": "address"
        }
      ],
      "name": "Unpaused",
      "type": "event"
    },
    {
      "inputs": [
        {
          "internalType": "address",
          "name": "to",
          "type": "address"
        },
        {
          "internalType": "uint256",
          "name": "tokenId",
          "type": "uint256"
        }
      ],
      "name": "approve",
      "outputs": [],
      "stateMutability": "nonpayable",
      "type": "function"
    },
    {
      "inputs": [
        {
          "internalType": "address",
          "name": "owner",
          "type": "address"
        }
      ],
      "name": "balanceOf",
      "outputs": [
        {
          "internalType": "uint256",
          "name": "",
          "type": "uint256"
        }
      ],
      "stateMutability": "view",
      "type": "function"
    },
    {
      "inputs": [
        {
          "internalType": "uint256",
          "name": "tokenId",
          "type": "uint256"
        }
      ],
      "name": "getApproved",
      "outputs": [
        {
          "internalType": "address",
          "name": "",
          "type": "address"
        }
      ],
      "stateMutability": "view",
      "type": "function"
    },
    {
      "inputs": [
        {
          "internalType": "address",
          "name": "owner",
          "type": "address"
        },
        {
          "internalType": "address",
          "name": "operator",
          "type": "address"
        }
      ],
      "name": "isApprovedForAll",
      "outputs": [
        {
          "internalType": "bool",
          "name": "",
          "type": "bool"
        }
      ],
      "stateMutability": "view",
      "type": "function"
    },
    {
      "inputs": [],
      "name": "name",
      "outputs": [
        {
          "internalType": "string",
          "name": "",
          "type": "string"
        }
      ],
      "stateMutability": "view",
      "type": "function"
    },
    {
      "inputs": [],
      "name": "owner",
      "outputs": [
        {
          "internalType": "address",
          "name": "",
          "type": "address"
        }
      ],
      "stateMutability": "view",
      "type": "function"
    },
    {
      "inputs": [
        {
          "internalType": "uint256",
          "name": "tokenId",
          "type": "uint256"
        }
      ],
      "name": "ownerOf",
      "outputs": [
        {
          "internalType": "address",
          "name": "",
          "type": "address"
        }
      ],
      "stateMutability": "view",
      "type": "function"
    },
    {
      "inputs": [],
      "name": "pause",
      "outputs": [],
      "stateMutability": "nonpayable",
      "type": "function"
    },
    {
      "inputs": [],
      "name": "paused",
      "outputs": [
        {
          "internalType": "bool",
          "name": "",
          "type": "bool"
        }
      ],
      "stateMutability": "view",
      "type": "function"
    },
    {
      "inputs": [],
      "name": "renounceOwnership",
      "outputs": [],
      "stateMutability": "nonpayable",
      "type": "function"
    },
    {
      "inputs": [
        {
          "internalType": "address",
          "name": "to",
          "type": "address"
        },
        {
          "internalType": "string",
          "name": "uri",
          "type": "string"
        }
      ],
      "name": "safeMint",
      "outputs": [],
      "stateMutability": "nonpayable",
      "type": "function"
    },
    {
      "inputs": [
        {
          "internalType": "address",
          "name": "from",
          "type": "address"
        },
        {
          "internalType": "address",
          "name": "to",
          "type": "address"
        },
        {
          "internalType": "uint256",
          "name": "tokenId",
          "type": "uint256"
        }
      ],
      "name": "safeTransferFrom",
      "outputs": [],
      "stateMutability": "nonpayable",
      "type": "function"
    },
    {
      "inputs": [
        {
          "internalType": "address",
          "name": "from",
          "type": "address"
        },
        {
          "internalType": "address",
          "name": "to",
          "type": "address"
        },
        {
          "internalType": "uint256",
          "name": "tokenId",
          "type": "uint256"
        },
        {
          "internalType": "bytes",
          "name": "_data",
          "type": "bytes"
        }
      ],
      "name": "safeTransferFrom",
      "outputs": [],
      "stateMutability": "nonpayable",
      "type": "function"
    },
    {
      "inputs": [
        {
          "internalType": "address",
          "name": "operator",
          "type": "address"
        },
        {
          "internalType": "bool",
          "name": "approved",
          "type": "bool"
        }
      ],
      "name": "setApprovalForAll",
      "outputs": [],
      "stateMutability": "nonpayable",
      "type": "function"
    },
    {
      "inputs": [
        {
          "internalType": "bytes4",
          "name": "interfaceId",
          "type": "bytes4"
        }
      ],
      "name": "supportsInterface",
      "outputs": [
        {
          "internalType": "bool",
          "name": "",
          "type": "bool"
        }
      ],
      "stateMutability": "view",
      "type": "function"
    },
    {
      "inputs": [],
      "name": "symbol",
      "outputs": [
        {
          "internalType": "string",
          "name": "",
          "type": "string"
        }
      ],
      "stateMutability": "view",
      "type": "function"
    },
    {
      "inputs": [
        {
          "internalType": "uint256",
          "name": "tokenId",
          "type": "uint256"
        }
      ],
      "name": "tokenURI",
      "outputs": [
        {
          "internalType": "string",
          "name": "",
          "type": "string"
        }
      ],
      "stateMutability": "view",
      "type": "function"
    },
    {
      "inputs": [
        {
          "internalType": "address",
          "name": "from",
          "type": "address"
        },
        {
          "internalType": "address",
          "name": "to",
          "type": "address"
        },
        {
          "internalType": "uint256",
          "name": "tokenId",
          "type": "uint256"
        }
      ],
      "name": "transferFrom",
      "outputs": [],
      "stateMutability": "nonpayable",
      "type": "function"
    },
    {
      "inputs": [
        {
          "internalType": "address",
          "name": "newOwner",
          "type": "address"
        }
      ],
      "name": "transferOwnership",
      "outputs": [],
      "stateMutability": "nonpayable",
      "type": "function"
    },
    {
      "inputs": [],
      "name": "unpause",
      "outputs": [],
      "stateMutability": "nonpayable",
      "type": "function"
    }
  ],
  "bytecode": "0x60806040523480156200001157600080fd5b5060408051808201825260068152652330b4b93abd60d11b60208083019182528351808501909452600384526223292d60e91b9084015281519192916200005b91600091620000f6565b50805162000071906001906020840190620000f6565b50506007805460ff1916905550620000926200008c62000098565b6200009c565b620001d9565b3390565b600780546001600160a01b03838116610100818102610100600160a81b031985161790945560405193909204169182907f8be0079c531659141344cd1fd0a4f28419497f9722a3daafe3b4186f6b6457e090600090a35050565b82805462000104906200019c565b90600052602060002090601f01602090048101928262000128576000855562000173565b82601f106200014357805160ff191683800117855562000173565b8280016001018555821562000173579182015b828111156200017357825182559160200191906001019062000156565b506200018192915062000185565b5090565b5b8082111562000181576000815560010162000186565b600281046001821680620001b157607f821691505b60208210811415620001d357634e487b7160e01b600052602260045260246000fd5b50919050565b611c4b80620001e96000396000f3fe608060405234801561001057600080fd5b506004361061012c5760003560e01c8063715018a6116100ad578063b88d4fde11610071578063b88d4fde14610240578063c87b56dd14610253578063d204c45e14610266578063e985e9c514610279578063f2fde38b1461028c5761012c565b8063715018a61461020d5780638456cb59146102155780638da5cb5b1461021d57806395d89b4114610225578063a22cb4651461022d5761012c565b80633f4ba83a116100f45780633f4ba83a146101b757806342842e0e146101bf5780635c975abb146101d25780636352211e146101da57806370a08231146101ed5761012c565b806301ffc9a71461013157806306fdde031461015a578063081812fc1461016f578063095ea7b31461018f57806323b872dd146101a4575b600080fd5b61014461013f366004611464565b61029f565b6040516101519190611560565b60405180910390f35b6101626102e7565b604051610151919061156b565b61018261017d36600461149c565b610379565b604051610151919061150f565b6101a261019d36600461143b565b6103c5565b005b6101a26101b23660046112ee565b61045d565b6101a2610495565b6101a26101cd3660046112ee565b6104de565b6101446104f9565b6101826101e836600461149c565b610502565b6102006101fb3660046112a2565b610537565b6040516101519190611adb565b6101a261057b565b6101a26105c4565b61018261060b565b61016261061f565b6101a261023b3660046113a2565b61062e565b6101a261024e366004611329565b610644565b61016261026136600461149c565b610683565b6101a26102743660046113dc565b61068e565b6101446102873660046112bc565b6106f9565b6101a261029a3660046112a2565b610727565b60006001600160e01b031982166380ac58cd60e01b14806102d057506001600160e01b03198216635b5e139f60e01b145b806102df57506102df82610798565b90505b919050565b6060600080546102f690611b53565b80601f016020809104026020016040519081016040528092919081815260200182805461032290611b53565b801561036f5780601f106103445761010080835404028352916020019161036f565b820191906000526020600020905b81548152906001019060200180831161035257829003601f168201915b5050505050905090565b6000610384826107b1565b6103a95760405162461bcd60e51b81526004016103a090611930565b60405180910390fd5b506000908152600460205260409020546001600160a01b031690565b60006103d082610502565b9050806001600160a01b0316836001600160a01b031614156104045760405162461bcd60e51b81526004016103a090611a49565b806001600160a01b03166104166107ce565b6001600160a01b031614806104325750610432816102876107ce565b61044e5760405162461bcd60e51b81526004016103a09061176c565b61045883836107d2565b505050565b61046e6104686107ce565b82610840565b61048a5760405162461bcd60e51b81526004016103a090611a8a565b6104588383836108c5565b61049d6107ce565b6001600160a01b03166104ae61060b565b6001600160a01b0316146104d45760405162461bcd60e51b81526004016103a09061197c565b6104dc6109f2565b565b61045883838360405180602001604052806000815250610644565b60075460ff1690565b6000818152600260205260408120546001600160a01b0316806102df5760405162461bcd60e51b81526004016103a090611813565b60006001600160a01b03821661055f5760405162461bcd60e51b81526004016103a0906117c9565b506001600160a01b031660009081526003602052604090205490565b6105836107ce565b6001600160a01b031661059461060b565b6001600160a01b0316146105ba5760405162461bcd60e51b81526004016103a09061197c565b6104dc6000610a60565b6105cc6107ce565b6001600160a01b03166105dd61060b565b6001600160a01b0316146106035760405162461bcd60e51b81526004016103a09061197c565b6104dc610aba565b60075461010090046001600160a01b031690565b6060600180546102f690611b53565b6106406106396107ce565b8383610b15565b5050565b61065561064f6107ce565b83610840565b6106715760405162461bcd60e51b81526004016103a090611a8a565b61067d84848484610bb8565b50505050565b60606102df82610beb565b6106966107ce565b6001600160a01b03166106a761060b565b6001600160a01b0316146106cd5760405162461bcd60e51b81526004016103a09061197c565b60006106d96008610d04565b90506106e56008610d08565b6106ef8382610d11565b6104588183610d2b565b6001600160a01b03918216600090815260056020908152604080832093909416825291909152205460ff1690565b61072f6107ce565b6001600160a01b031661074061060b565b6001600160a01b0316146107665760405162461bcd60e51b81526004016103a09061197c565b6001600160a01b03811661078c5760405162461bcd60e51b81526004016103a0906115fe565b61079581610a60565b50565b6001600160e01b031981166301ffc9a760e01b14919050565b6000908152600260205260409020546001600160a01b0316151590565b3390565b600081815260046020526040902080546001600160a01b0319166001600160a01b038416908117909155819061080782610502565b6001600160a01b03167f8c5be1e5ebec7d5bd14f71427d1e84f3dd0314c0f7b2291e5b200ac8c7c3b92560405160405180910390a45050565b600061084b826107b1565b6108675760405162461bcd60e51b81526004016103a0906116f6565b600061087283610502565b9050806001600160a01b0316846001600160a01b031614806108ad5750836001600160a01b03166108a284610379565b6001600160a01b0316145b806108bd57506108bd81856106f9565b949350505050565b826001600160a01b03166108d882610502565b6001600160a01b0316146108fe5760405162461bcd60e51b81526004016103a0906119b1565b6001600160a01b0382166109245760405162461bcd60e51b81526004016103a09061167b565b61092f838383610d6f565b61093a6000826107d2565b6001600160a01b0383166000908152600360205260408120805460019290610963908490611b10565b90915550506001600160a01b0382166000908152600360205260408120805460019290610991908490611ae4565b909155505060008181526002602052604080822080546001600160a01b0319166001600160a01b0386811691821790925591518493918716917fddf252ad1be2c89b69c2b068fc378daa952ba7f163c4a11628f55a4df523b3ef91a4505050565b6109fa6104f9565b610a165760405162461bcd60e51b81526004016103a09061157e565b6007805460ff191690557f5db9ee0a495bf2e6ff9c91a7834c1ba4fdd244a5e8aa4e537bd38aeae4b073aa610a496107ce565b604051610a56919061150f565b60405180910390a1565b600780546001600160a01b03838116610100818102610100600160a81b031985161790945560405193909204169182907f8be0079c531659141344cd1fd0a4f28419497f9722a3daafe3b4186f6b6457e090600090a35050565b610ac26104f9565b15610adf5760405162461bcd60e51b81526004016103a090611742565b6007805460ff191660011790557f62e78cea01bee320cd4e420270b5ea74000d11b0c9f74754ebdbfc544b05a258610a496107ce565b816001600160a01b0316836001600160a01b03161415610b475760405162461bcd60e51b81526004016103a0906116bf565b6001600160a01b0383811660008181526005602090815260408083209487168084529490915290819020805460ff1916851515179055517f17307eab39ab6107e8899845ad3d59bd9653f200f220920489ca2b5937696c3190610bab908590611560565b60405180910390a3505050565b610bc38484846108c5565b610bcf84848484610d9f565b61067d5760405162461bcd60e51b81526004016103a0906115ac565b6060610bf6826107b1565b610c125760405162461bcd60e51b81526004016103a0906118df565b60008281526006602052604081208054610c2b90611b53565b80601f0160208091040260200160405190810160405280929190818152602001828054610c5790611b53565b8015610ca45780601f10610c7957610100808354040283529160200191610ca4565b820191906000526020600020905b815481529060010190602001808311610c8757829003601f168201915b505050505090506000610cb5610eba565b9050805160001415610cc9575090506102e2565b815115610cfb578082604051602001610ce39291906114e0565b604051602081830303815290604052925050506102e2565b6108bd84610ecc565b5490565b80546001019055565b610640828260405180602001604052806000815250610f4f565b610d34826107b1565b610d505760405162461bcd60e51b81526004016103a09061185c565b6000828152600660209081526040909120825161045892840190611182565b610d776104f9565b15610d945760405162461bcd60e51b81526004016103a090611742565b610458838383610458565b6000610db3846001600160a01b0316610f82565b15610eaf57836001600160a01b031663150b7a02610dcf6107ce565b8786866040518563ffffffff1660e01b8152600401610df19493929190611523565b602060405180830381600087803b158015610e0b57600080fd5b505af1925050508015610e3b575060408051601f3d908101601f19168201909252610e3891810190611480565b60015b610e95573d808015610e69576040519150601f19603f3d011682016040523d82523d6000602084013e610e6e565b606091505b508051610e8d5760405162461bcd60e51b81526004016103a0906115ac565b805181602001fd5b6001600160e01b031916630a85bd0160e11b1490506108bd565b506001949350505050565b60408051602081019091526000815290565b6060610ed7826107b1565b610ef35760405162461bcd60e51b81526004016103a0906119fa565b6000610efd610eba565b90506000815111610f1d5760405180602001604052806000815250610f48565b80610f2784610f88565b604051602001610f389291906114e0565b6040516020818303038152906040525b9392505050565b610f5983836110a3565b610f666000848484610d9f565b6104585760405162461bcd60e51b81526004016103a0906115ac565b3b151590565b606081610fad57506040805180820190915260018152600360fc1b60208201526102e2565b8160005b8115610fd75780610fc181611b8e565b9150610fd09050600a83611afc565b9150610fb1565b60008167ffffffffffffffff81111561100057634e487b7160e01b600052604160045260246000fd5b6040519080825280601f01601f19166020018201604052801561102a576020820181803683370190505b5090505b84156108bd5761103f600183611b10565b915061104c600a86611ba9565b611057906030611ae4565b60f81b81838151811061107a57634e487b7160e01b600052603260045260246000fd5b60200101906001600160f81b031916908160001a90535061109c600a86611afc565b945061102e565b6001600160a01b0382166110c95760405162461bcd60e51b81526004016103a0906118aa565b6110d2816107b1565b156110ef5760405162461bcd60e51b81526004016103a090611644565b6110fb60008383610d6f565b6001600160a01b0382166000908152600360205260408120805460019290611124908490611ae4565b909155505060008181526002602052604080822080546001600160a01b0319166001600160a01b03861690811790915590518392907fddf252ad1be2c89b69c2b068fc378daa952ba7f163c4a11628f55a4df523b3ef908290a45050565b82805461118e90611b53565b90600052602060002090601f0160209004810192826111b057600085556111f6565b82601f106111c957805160ff19168380011785556111f6565b828001600101855582156111f6579182015b828111156111f65782518255916020019190600101906111db565b50611202929150611206565b5090565b5b808211156112025760008155600101611207565b600067ffffffffffffffff8084111561123657611236611be9565b604051601f8501601f19168101602001828111828210171561125a5761125a611be9565b60405284815291508183850186101561127257600080fd5b8484602083013760006020868301015250509392505050565b80356001600160a01b03811681146102e257600080fd5b6000602082840312156112b3578081fd5b610f488261128b565b600080604083850312156112ce578081fd5b6112d78361128b565b91506112e56020840161128b565b90509250929050565b600080600060608486031215611302578081fd5b61130b8461128b565b92506113196020850161128b565b9150604084013590509250925092565b6000806000806080858703121561133e578081fd5b6113478561128b565b93506113556020860161128b565b925060408501359150606085013567ffffffffffffffff811115611377578182fd5b8501601f81018713611387578182fd5b6113968782356020840161121b565b91505092959194509250565b600080604083850312156113b4578182fd5b6113bd8361128b565b9150602083013580151581146113d1578182fd5b809150509250929050565b600080604083850312156113ee578182fd5b6113f78361128b565b9150602083013567ffffffffffffffff811115611412578182fd5b8301601f81018513611422578182fd5b6114318582356020840161121b565b9150509250929050565b6000806040838503121561144d578182fd5b6114568361128b565b946020939093013593505050565b600060208284031215611475578081fd5b8135610f4881611bff565b600060208284031215611491578081fd5b8151610f4881611bff565b6000602082840312156114ad578081fd5b5035919050565b600081518084526114cc816020860160208601611b27565b601f01601f19169290920160200192915050565b600083516114f2818460208801611b27565b835190830190611506818360208801611b27565b01949350505050565b6001600160a01b0391909116815260200190565b6001600160a01b0385811682528416602082015260408101839052608060608201819052600090611556908301846114b4565b9695505050505050565b901515815260200190565b600060208252610f4860208301846114b4565b60208082526014908201527314185d5cd8589b194e881b9bdd081c185d5cd95960621b604082015260600190565b60208082526032908201527f4552433732313a207472616e7366657220746f206e6f6e20455243373231526560408201527131b2b4bb32b91034b6b83632b6b2b73a32b960711b606082015260800190565b60208082526026908201527f4f776e61626c653a206e6577206f776e657220697320746865207a65726f206160408201526564647265737360d01b606082015260800190565b6020808252601c908201527f4552433732313a20746f6b656e20616c7265616479206d696e74656400000000604082015260600190565b60208082526024908201527f4552433732313a207472616e7366657220746f20746865207a65726f206164646040820152637265737360e01b606082015260800190565b60208082526019908201527f4552433732313a20617070726f766520746f2063616c6c657200000000000000604082015260600190565b6020808252602c908201527f4552433732313a206f70657261746f7220717565727920666f72206e6f6e657860408201526b34b9ba32b73a103a37b5b2b760a11b606082015260800190565b60208082526010908201526f14185d5cd8589b194e881c185d5cd95960821b604082015260600190565b60208082526038908201527f4552433732313a20617070726f76652063616c6c6572206973206e6f74206f7760408201527f6e6572206e6f7220617070726f76656420666f7220616c6c0000000000000000606082015260800190565b6020808252602a908201527f4552433732313a2062616c616e636520717565727920666f7220746865207a65604082015269726f206164647265737360b01b606082015260800190565b60208082526029908201527f4552433732313a206f776e657220717565727920666f72206e6f6e657869737460408201526832b73a103a37b5b2b760b91b606082015260800190565b6020808252602e908201527f45524337323155524953746f726167653a2055524920736574206f66206e6f6e60408201526d32bc34b9ba32b73a103a37b5b2b760911b606082015260800190565b6020808252818101527f4552433732313a206d696e7420746f20746865207a65726f2061646472657373604082015260600190565b60208082526031908201527f45524337323155524953746f726167653a2055524920717565727920666f72206040820152703737b732bc34b9ba32b73a103a37b5b2b760791b606082015260800190565b6020808252602c908201527f4552433732313a20617070726f76656420717565727920666f72206e6f6e657860408201526b34b9ba32b73a103a37b5b2b760a11b606082015260800190565b6020808252818101527f4f776e61626c653a2063616c6c6572206973206e6f7420746865206f776e6572604082015260600190565b60208082526029908201527f4552433732313a207472616e73666572206f6620746f6b656e2074686174206960408201526839903737ba1037bbb760b91b606082015260800190565b6020808252602f908201527f4552433732314d657461646174613a2055524920717565727920666f72206e6f60408201526e3732bc34b9ba32b73a103a37b5b2b760891b606082015260800190565b60208082526021908201527f4552433732313a20617070726f76616c20746f2063757272656e74206f776e656040820152603960f91b606082015260800190565b60208082526031908201527f4552433732313a207472616e736665722063616c6c6572206973206e6f74206f6040820152701ddb995c881b9bdc88185c1c1c9bdd9959607a1b606082015260800190565b90815260200190565b60008219821115611af757611af7611bbd565b500190565b600082611b0b57611b0b611bd3565b500490565b600082821015611b2257611b22611bbd565b500390565b60005b83811015611b42578181015183820152602001611b2a565b8381111561067d5750506000910152565b600281046001821680611b6757607f821691505b60208210811415611b8857634e487b7160e01b600052602260045260246000fd5b50919050565b6000600019821415611ba257611ba2611bbd565b5060010190565b600082611bb857611bb8611bd3565b500690565b634e487b7160e01b600052601160045260246000fd5b634e487b7160e01b600052601260045260246000fd5b634e487b7160e01b600052604160045260246000fd5b6001600160e01b03198116811461079557600080fdfea2646970667358221220580585ed5fbe97ed19c475fdb961d716cab17035dead775ef031451816a8dc1364736f6c63430008000033",
  "linkReferences": {},
  "deployedLinkReferences": {}
}